FHDR0716209000000275250MVERSION 16                                                                                                                                                                                                                        
SHDR000    9282A                                                                                                                                                                                                                                          
FREC000000000A0000071620082855166012888275805944   00000000009400000000000000000001986227512000000000000MS2       C928      9282000010000000D000000000000D00000000D928211000000000010000000C0000015000D000           4NNX  000010000000D071620     000000 
FREC000000000A0000071620083126166012888275805944   00000000009500000000000000000001986227512000000000000MS2       C928      9282000022000000D000000000000D00000000D928211000000000022000000C0000033000D000           4NNX  000022000000D071620     000000 
FREC000000000A0000071620083322166012888275805944   00000000009600000000000000000001986227512000000000000MS2       C928      9282000010500000D000000000000D00000000D928211000000000010500000C0000015750D000           4NNX  000010500000D071620     000000 
FREC000000000A0000071620083639165899417369601942   00000000010500000000000000000001986227512000000000000MS2       C928      9282000034000000D000000000000D00000000D928211000000000034000000C0000051000D000           4NNX  000034000000D071620     000000 
FREC000000000A0000071620083739165899417369601942   00000000010600000000000000000001986227512000000000000MS2       C928      9282000009400000D000000000000D00000000D928211000000000009400000C0000014100D000           4NNX  000009400000D071620     000000 
FREC000000000A0000071620083900165899417369601942   00000000010700000000000000000001986227512000000000000MS2       C928      9282000017500000D000000000000D00000000D928211000000000017500000C0000026250D000           4NNX  000017500000D071620     000000 
NREC000000000A0000071620084607165899417369601942   00000000010800000000000000000001986227512000000000005MS2       C928      9282000034000000D000000000000D00000000D928211000000000034000000D0000051000D000           4NNX  000034000000D071620     000000 
FREC000000000A0000071620085014166276092985122747   00000000010900000000000000000001986227512000000000000MS2       C928      9282000275000000D000000000000D00000000D928211000000000275000000C0000412500D000           4NNX  000275000000D071620     000000 
FREC000000000A0000071620085239166276092985122747   00000000011000000000000000000001986227512000000000000MS2       C928      9282000358720000D000000000000D00000000D928211000000000358720000C0000538080D000           4NNX  000358720000D071620     000000 
NREC000000000A0000071620085321166276092985122747   00000000011100000000000000000001986227512000000000005MS2       C928      9282000358720000D000000000000D00000000D928211000000000358720000D0000538080D000           4NNX  000358720000D071620     000000 
FREC000000000A0000071620085501166276092985122747   00000000011200000000000000000001986227512000000000000MS2       C928      9282001250000000D000000000000D00000000D928211000000001250000000C0001875000D000           4NNX  001250000000D071620     000000 
FREC000000000A0000071620085806166276092985122747   00000000011300000000000000000001986227512000000000000MS2       C928      9282001500000000D000000000000D00000000D928211000000001500000000C0002250000D000           4NNX  001500000000D071620     000000 
NREC000000000A0000071620090037166276092985122747   00000000011400000000000000000001986227512000000000005MS2       C928      9282001500000000D000000000000D00000000D928211000000001500000000D0002250000D000           4NNX  001500000000D071620     000000 
STRL000    9282A          000000000000000000000000003487120000000000100000189272000000000003000000000000000000000000000000000000000000000000000000                 00003487120000C000000000000000000000000000000000000000000000000000000000000000000000000
STRL000    9282N          000000000000000000000000000000000000000000000000000000000000000000000000000000000000000000000000000000000000000000000000                 00000000000000C000000000000000000000000000000000000000000000000000000000000000000000000
FTRL900000027500000000013                                                                                                                                                                                                                                 
SUB                                                                                                                                                                                                                                                       
