FHDR0716209000000313250MVERSION 16                                                                                                                                                                                                                        
SHDR000    9282A                                                                                                                                                                                                                                          
FREC000000000A0000071620091706166012888275805944   00000000013600000000000000000001993731318000000000000MS2       C928      9282000019000000D000000000000D00000000D928211000000000019000000C0000028500D000           4NNX  000019000000D071620     000000 
FREC000000000A0000071620092107166012888275805944   00000000013700000000000000000001993731318000000000000MS2       C928      9282000008000000D000000000000D00000000D928211000000000008000000C0000012000D000           4NNX  000008000000D071620     000000 
FREC000000000A0000071620092308166012888275805944   00000000013800000000000000000001993731318000000000000MS2       C928      9282000027500000D000000000000D00000000D928211000000000027500000C0000041250D000           4NNX  000027500000D071620     000000 
NREC000000000A0000071620092426166012888275805944   00000000013900000000000000000001993731318000000000005MS2       C928      9282000027500000D000000000000D00000000D928211000000000027500000D0000041250D000           4NNX  000027500000D071620     000000 
FREC000000000A0000071620092708165899417369601942   00000000014000000000000000000001993731318000000000000MS2       C928      9282000031500000D000000000000D00000000D928211000000000031500000C0000047250D000           4NNX  000031500000D071620     000000 
FREC000000000A0000071620093622166276092985122747   00000000014100000000000000000001993731318000000000000MS2       C928      9282001250000000D000000000000D00000000D928211000000001250000000C0001875000D000           4NNX  001250000000D071620     000000 
FREC000000000A0000071620093900166276092985122747   00000000014200000000000000000001993731318000000000000MS2       C928      9282000275000000D000000000000D00000000D928211000000000275000000C0000412500D000           4NNX  000275000000D071620     000000 
NREC000000000A0000071620094011166276092985122747   00000000014300000000000000000001993731318000000000005MS2       C928      9282000275000000D000000000000D00000000D928211000000000275000000D0000412500D000           4NNX  000275000000D071620     000000 
FREC000000000A000007162009413519639489000102442846000000000014400000000000000000001993731318000000000000MS2       C928      9282001578500000D000000000000D00000000D928211000000001578500000C0002367750D000           4NNX  001578500000D071620     000000 
FREC000000000A000007162009452119639489000102442846000000000014500000000000000000001993731318000000000000MS2       C928      9282000004000000D000000000000D00000000D928211000000000004000000C0000006000D000           4NNX  000004000000D071620     000000 
FREC000000000A0000071620102055165899417369601942   00000000014600000000000000000001993731318000000000000MS2       C928      9282000005000000D000000000000D00000000D928211000000000005000000C0000007500D000           4NNX  000005000000D071620     000000 
NREC000000000A0000071620102216165899417369601942   00000000014700000000000000000001993731318000000000005MS2       C928      9282000005000000D000000000000D00000000D928211000000000005000000D0000007500D000           4NNX  000005000000D071620     000000 
STRL000    9282A          000000000000000000000000003198500000000000090000030750000000000003000000000000000000000000000000000000000000000000000000                 00003198500000C000000000000000000000000000000000000000000000000000000000000000000000000
STRL000    9282N          000000000000000000000000000000000000000000000000000000000000000000000000000000000000000000000000000000000000000000000000                 00003198500000C000000000000000000000000000000000000000000000000000000000000000000000000
FTRL900000031300000000012                                                                                                                                                                                                                                 
SUB                                                                                                                                                                                                                                                       
